{
  "contractName": "ewaste",
  "abi": [
    {
      "constant": true,
      "inputs": [],
      "name": "_p_id",
      "outputs": [
        {
          "name": "",
          "type": "uint256"
        }
      ],
      "payable": false,
      "stateMutability": "view",
      "type": "function",
      "signature": "0x26d20f94"
    },
    {
      "constant": true,
      "inputs": [
        {
          "name": "",
          "type": "uint256"
        }
      ],
      "name": "participants",
      "outputs": [
        {
          "name": "_userName",
          "type": "string"
        },
        {
          "name": "_passWord",
          "type": "string"
        },
        {
          "name": "_userType",
          "type": "string"
        },
        {
          "name": "_address",
          "type": "address"
        }
      ],
      "payable": false,
      "stateMutability": "view",
      "type": "function",
      "signature": "0x35c1d349"
    },
    {
      "constant": true,
      "inputs": [],
      "name": "_t_id",
      "outputs": [
        {
          "name": "",
          "type": "uint256"
        }
      ],
      "payable": false,
      "stateMutability": "view",
      "type": "function",
      "signature": "0x567b3a7a"
    },
    {
      "constant": true,
      "inputs": [],
      "name": "_u_id",
      "outputs": [
        {
          "name": "",
          "type": "uint256"
        }
      ],
      "payable": false,
      "stateMutability": "view",
      "type": "function",
      "signature": "0x5fe73f3f"
    },
    {
      "constant": true,
      "inputs": [
        {
          "name": "",
          "type": "uint256"
        }
      ],
      "name": "products",
      "outputs": [
        {
          "name": "_product_name",
          "type": "string"
        },
        {
          "name": "_product_cost",
          "type": "uint256"
        },
        {
          "name": "_product_specs",
          "type": "string"
        },
        {
          "name": "_product_review",
          "type": "string"
        },
        {
          "name": "_product_owner",
          "type": "address"
        },
        {
          "name": "_manufacture_date",
          "type": "uint256"
        },
        {
          "name": "_mfg",
          "type": "address"
        },
        {
          "name": "_sup",
          "type": "address"
        },
        {
          "name": "_ret",
          "type": "address"
        },
        {
          "name": "_cust",
          "type": "address"
        },
        {
          "name": "_expiry_date",
          "type": "uint256"
        }
      ],
      "payable": false,
      "stateMutability": "view",
      "type": "function",
      "signature": "0x7acc0b20"
    },
    {
      "constant": true,
      "inputs": [],
      "name": "owner",
      "outputs": [
        {
          "name": "",
          "type": "address"
        }
      ],
      "payable": false,
      "stateMutability": "view",
      "type": "function",
      "signature": "0x8da5cb5b"
    },
    {
      "constant": true,
      "inputs": [
        {
          "name": "",
          "type": "uint256"
        }
      ],
      "name": "tracks",
      "outputs": [
        {
          "name": "_product_id",
          "type": "uint256"
        },
        {
          "name": "_prev_owner_id",
          "type": "uint256"
        },
        {
          "name": "_new_owner_id",
          "type": "uint256"
        },
        {
          "name": "_prev_product_owner",
          "type": "address"
        },
        {
          "name": "_new_product_owner",
          "type": "address"
        },
        {
          "name": "_transfer_type",
          "type": "string"
        },
        {
          "name": "_timeStamp",
          "type": "uint256"
        }
      ],
      "payable": false,
      "stateMutability": "view",
      "type": "function",
      "signature": "0xa2e34586"
    },
    {
      "inputs": [],
      "payable": false,
      "stateMutability": "nonpayable",
      "type": "constructor",
      "signature": "constructor"
    },
    {
      "anonymous": false,
      "inputs": [
        {
          "indexed": false,
          "name": "product_id",
          "type": "uint256"
        },
        {
          "indexed": false,
          "name": "prod_owner",
          "type": "address"
        }
      ],
      "name": "ProductExpired",
      "type": "event",
      "signature": "0x4f8b94e6fd66fcbed7593f9ff2d7e3d4ab1d8bd0720ab00d8a7ec18677a34ff1"
    },
    {
      "constant": false,
      "inputs": [
        {
          "name": "product_id",
          "type": "uint256"
        }
      ],
      "name": "checkifprodexpired",
      "outputs": [],
      "payable": false,
      "stateMutability": "nonpayable",
      "type": "function",
      "signature": "0xaa0636ba"
    },
    {
      "constant": false,
      "inputs": [
        {
          "name": "name",
          "type": "string"
        },
        {
          "name": "pass",
          "type": "string"
        },
        {
          "name": "utype",
          "type": "string"
        }
      ],
      "name": "createParticipant",
      "outputs": [
        {
          "name": "",
          "type": "uint256"
        }
      ],
      "payable": false,
      "stateMutability": "nonpayable",
      "type": "function",
      "signature": "0xf7e37f8c"
    },
    {
      "constant": false,
      "inputs": [
        {
          "name": "own_id",
          "type": "uint256"
        },
        {
          "name": "name",
          "type": "string"
        },
        {
          "name": "p_cost",
          "type": "uint256"
        },
        {
          "name": "p_specs",
          "type": "string"
        },
        {
          "name": "p_review",
          "type": "string"
        }
      ],
      "name": "newProduct",
      "outputs": [
        {
          "name": "",
          "type": "uint256"
        }
      ],
      "payable": false,
      "stateMutability": "nonpayable",
      "type": "function",
      "signature": "0xad51c3d6"
    },
    {
      "constant": false,
      "inputs": [
        {
          "name": "p_id",
          "type": "uint256"
        }
      ],
      "name": "getParticipant",
      "outputs": [
        {
          "name": "",
          "type": "string"
        },
        {
          "name": "",
          "type": "address"
        },
        {
          "name": "",
          "type": "string"
        }
      ],
      "payable": false,
      "stateMutability": "nonpayable",
      "type": "function",
      "signature": "0x1b9db2ef"
    },
    {
      "constant": false,
      "inputs": [
        {
          "name": "prod_id",
          "type": "uint256"
        }
      ],
      "name": "getProduct_details",
      "outputs": [
        {
          "name": "",
          "type": "string"
        },
        {
          "name": "",
          "type": "uint256"
        },
        {
          "name": "",
          "type": "string"
        },
        {
          "name": "",
          "type": "string"
        },
        {
          "name": "",
          "type": "address"
        },
        {
          "name": "",
          "type": "uint256"
        }
      ],
      "payable": false,
      "stateMutability": "nonpayable",
      "type": "function",
      "signature": "0x3248cfc4"
    },
    {
      "constant": false,
      "inputs": [
        {
          "name": "user1_id",
          "type": "uint256"
        },
        {
          "name": "user2_id",
          "type": "uint256"
        },
        {
          "name": "prod_id",
          "type": "uint256"
        }
      ],
      "name": "transferOwnership_product",
      "outputs": [
        {
          "name": "",
          "type": "bool"
        }
      ],
      "payable": false,
      "stateMutability": "nonpayable",
      "type": "function",
      "signature": "0xa6822b2a"
    },
    {
      "constant": false,
      "inputs": [
        {
          "name": "trck_id",
          "type": "uint256"
        }
      ],
      "name": "getProduct_trackindex",
      "outputs": [
        {
          "name": "",
          "type": "uint256"
        },
        {
          "name": "",
          "type": "uint256"
        },
        {
          "name": "",
          "type": "address"
        },
        {
          "name": "",
          "type": "uint256"
        }
      ],
      "payable": false,
      "stateMutability": "nonpayable",
      "type": "function",
      "signature": "0xfcd48d31"
    },
    {
      "constant": false,
      "inputs": [
        {
          "name": "uid",
          "type": "uint256"
        },
        {
          "name": "uname",
          "type": "string"
        },
        {
          "name": "pass",
          "type": "string"
        },
        {
          "name": "utype",
          "type": "string"
        }
      ],
      "name": "userLogin",
      "outputs": [
        {
          "name": "",
          "type": "bool"
        }
      ],
      "payable": false,
      "stateMutability": "nonpayable",
      "type": "function",
      "signature": "0x4bdff7a3"
    }
  ],
  "bytecode": "0x608060405260006001556000600255600060035534801561001f57600080fd5b50336000806101000a81548173ffffffffffffffffffffffffffffffffffffffff021916908373ffffffffffffffffffffffffffffffffffffffff160217905550613e1a8061006f6000396000f3fe6080604052600436106100db576000357c0100000000000000000000000000000000000000000000000000000000900463ffffffff1680631b9db2ef146100e057806326d20f94146102335780633248cfc41461025e57806335c1d3491461042b5780634bdff7a3146105ea578063567b3a7a146108025780635fe73f3f1461082d5780637acc0b20146108585780638da5cb5b14610af8578063a2e3458614610b4f578063a6822b2a14610c85578063aa0636ba14610cec578063ad51c3d614610d27578063f7e37f8c14610f45578063fcd48d311461114f575b600080fd5b3480156100ec57600080fd5b506101196004803603602081101561010357600080fd5b81019080803590602001909291905050506111df565b60405180806020018473ffffffffffffffffffffffffffffffffffffffff1673ffffffffffffffffffffffffffffffffffffffff16815260200180602001838103835286818151815260200191508051906020019080838360005b8381101561018f578082015181840152602081019050610174565b50505050905090810190601f1680156101bc5780820380516001836020036101000a031916815260200191505b50838103825284818151815260200191508051906020019080838360005b838110156101f55780820151818401526020810190506101da565b50505050905090810190601f1680156102225780820380516001836020036101000a031916815260200191505b509550505050505060405180910390f35b34801561023f57600080fd5b5061024861138d565b6040518082815260200191505060405180910390f35b34801561026a57600080fd5b506102976004803603602081101561028157600080fd5b8101908080359060200190929190505050611393565b604051808060200187815260200180602001806020018673ffffffffffffffffffffffffffffffffffffffff1673ffffffffffffffffffffffffffffffffffffffff16815260200185815260200184810384528a818151815260200191508051906020019080838360005b8381101561031d578082015181840152602081019050610302565b50505050905090810190601f16801561034a5780820380516001836020036101000a031916815260200191505b50848103835288818151815260200191508051906020019080838360005b83811015610383578082015181840152602081019050610368565b50505050905090810190601f1680156103b05780820380516001836020036101000a031916815260200191505b50848103825287818151815260200191508051906020019080838360005b838110156103e95780820151818401526020810190506103ce565b50505050905090810190601f1680156104165780820380516001836020036101000a031916815260200191505b50995050505050505050505060405180910390f35b34801561043757600080fd5b506104646004803603602081101561044e57600080fd5b810190808035906020019092919050505061162d565b604051808060200180602001806020018573ffffffffffffffffffffffffffffffffffffffff1673ffffffffffffffffffffffffffffffffffffffff168152602001848103845288818151815260200191508051906020019080838360005b838110156104de5780820151818401526020810190506104c3565b50505050905090810190601f16801561050b5780820380516001836020036101000a031916815260200191505b50848103835287818151815260200191508051906020019080838360005b83811015610544578082015181840152602081019050610529565b50505050905090810190601f1680156105715780820380516001836020036101000a031916815260200191505b50848103825286818151815260200191508051906020019080838360005b838110156105aa57808201518184015260208101905061058f565b50505050905090810190601f1680156105d75780820380516001836020036101000a031916815260200191505b5097505050505050505060405180910390f35b3480156105f657600080fd5b506107e86004803603608081101561060d57600080fd5b81019080803590602001909291908035906020019064010000000081111561063457600080fd5b82018360208201111561064657600080fd5b8035906020019184600183028401116401000000008311171561066857600080fd5b91908080601f016020809104026020016040519081016040528093929190818152602001838380828437600081840152601f19601f820116905080830192505050505050509192919290803590602001906401000000008111156106cb57600080fd5b8201836020820111156106dd57600080fd5b803590602001918460018302840111640100000000831117156106ff57600080fd5b91908080601f016020809104026020016040519081016040528093929190818152602001838380828437600081840152601f19601f8201169050808301925050505050505091929192908035906020019064010000000081111561076257600080fd5b82018360208201111561077457600080fd5b8035906020019184600183028401116401000000008311171561079657600080fd5b91908080601f016020809104026020016040519081016040528093929190818152602001838380828437600081840152601f19601f820116905080830192505050505050509192919290505050611845565b604051808215151515815260200191505060405180910390f35b34801561080e57600080fd5b50610817611c4f565b6040518082815260200191505060405180910390f35b34801561083957600080fd5b50610842611c55565b6040518082815260200191505060405180910390f35b34801561086457600080fd5b506108916004803603602081101561087b57600080fd5b8101908080359060200190929190505050611c5b565b60405180806020018c815260200180602001806020018b73ffffffffffffffffffffffffffffffffffffffff1673ffffffffffffffffffffffffffffffffffffffff1681526020018a81526020018973ffffffffffffffffffffffffffffffffffffffff1673ffffffffffffffffffffffffffffffffffffffff1681526020018873ffffffffffffffffffffffffffffffffffffffff1673ffffffffffffffffffffffffffffffffffffffff1681526020018773ffffffffffffffffffffffffffffffffffffffff1673ffffffffffffffffffffffffffffffffffffffff1681526020018673ffffffffffffffffffffffffffffffffffffffff1673ffffffffffffffffffffffffffffffffffffffff16815260200185815260200184810384528f818151815260200191508051906020019080838360005b838110156109e55780820151818401526020810190506109ca565b50505050905090810190601f168015610a125780820380516001836020036101000a031916815260200191505b5084810383528d818151815260200191508051906020019080838360005b83811015610a4b578082015181840152602081019050610a30565b50505050905090810190601f168015610a785780820380516001836020036101000a031916815260200191505b5084810382528c818151815260200191508051906020019080838360005b83811015610ab1578082015181840152602081019050610a96565b50505050905090810190601f168015610ade5780820380516001836020036101000a031916815260200191505b509e50505050505050505050505050505060405180910390f35b348015610b0457600080fd5b50610b0d611f1d565b604051808273ffffffffffffffffffffffffffffffffffffffff1673ffffffffffffffffffffffffffffffffffffffff16815260200191505060405180910390f35b348015610b5b57600080fd5b50610b8860048036036020811015610b7257600080fd5b8101908080359060200190929190505050611f42565b604051808881526020018781526020018681526020018573ffffffffffffffffffffffffffffffffffffffff1673ffffffffffffffffffffffffffffffffffffffff1681526020018473ffffffffffffffffffffffffffffffffffffffff1673ffffffffffffffffffffffffffffffffffffffff16815260200180602001838152602001828103825284818151815260200191508051906020019080838360005b83811015610c44578082015181840152602081019050610c29565b50505050905090810190601f168015610c715780820380516001836020036101000a031916815260200191505b509850505050505050505060405180910390f35b348015610c9157600080fd5b50610cd260048036036060811015610ca857600080fd5b8101908080359060200190929190803590602001909291908035906020019092919050505061205c565b604051808215151515815260200191505060405180910390f35b348015610cf857600080fd5b50610d2560048036036020811015610d0f57600080fd5b8101908080359060200190929190505050613603565b005b348015610d3357600080fd5b50610f2f600480360360a0811015610d4a57600080fd5b810190808035906020019092919080359060200190640100000000811115610d7157600080fd5b820183602082011115610d8357600080fd5b80359060200191846001830284011164010000000083111715610da557600080fd5b91908080601f016020809104026020016040519081016040528093929190818152602001838380828437600081840152601f19601f8201169050808301925050505050505091929192908035906020019092919080359060200190640100000000811115610e1257600080fd5b820183602082011115610e2457600080fd5b80359060200191846001830284011164010000000083111715610e4657600080fd5b91908080601f016020809104026020016040519081016040528093929190818152602001838380828437600081840152601f19601f82011690508083019250505050505050919291929080359060200190640100000000811115610ea957600080fd5b820183602082011115610ebb57600080fd5b80359060200191846001830284011164010000000083111715610edd57600080fd5b91908080601f016020809104026020016040519081016040528093929190818152602001838380828437600081840152601f19601f8201169050808301925050505050505091929192905050506136c7565b6040518082815260200191505060405180910390f35b348015610f5157600080fd5b5061113960048036036060811015610f6857600080fd5b8101908080359060200190640100000000811115610f8557600080fd5b820183602082011115610f9757600080fd5b80359060200191846001830284011164010000000083111715610fb957600080fd5b91908080601f016020809104026020016040519081016040528093929190818152602001838380828437600081840152601f19601f8201169050808301925050505050505091929192908035906020019064010000000081111561101c57600080fd5b82018360208201111561102e57600080fd5b8035906020019184600183028401116401000000008311171561105057600080fd5b91908080601f016020809104026020016040519081016040528093929190818152602001838380828437600081840152601f19601f820116905080830192505050505050509192919290803590602001906401000000008111156110b357600080fd5b8201836020820111156110c557600080fd5b803590602001918460018302840111640100000000831117156110e757600080fd5b91908080601f016020809104026020016040519081016040528093929190818152602001838380828437600081840152601f19601f8201169050808301925050505050505091929192905050506139de565b6040518082815260200191505060405180910390f35b34801561115b57600080fd5b506111886004803603602081101561117257600080fd5b8101908080359060200190929190505050613ad7565b604051808581526020018481526020018373ffffffffffffffffffffffffffffffffffffffff1673ffffffffffffffffffffffffffffffffffffffff16815260200182815260200194505050505060405180910390f35b606060006060600660008581526020019081526020016000206000016006600086815260200190815260200160002060030160009054906101000a900473ffffffffffffffffffffffffffffffffffffffff1660066000878152602001908152602001600020600201828054600181600116156101000203166002900480601f0160208091040260200160405190810160405280929190818152602001828054600181600116156101000203166002900480156112dd5780601f106112b2576101008083540402835291602001916112dd565b820191906000526020600020905b8154815290600101906020018083116112c057829003601f168201915b50505050509250808054600181600116156101000203166002900480601f0160208091040260200160405190810160405280929190818152602001828054600181600116156101000203166002900480156113795780601f1061134e57610100808354040283529160200191611379565b820191906000526020600020905b81548152906001019060200180831161135c57829003601f168201915b505050505090509250925092509193909250565b60015481565b60606000606080600080600560008881526020019081526020016000206000016005600089815260200190815260200160002060010154600560008a8152602001908152602001600020600201600560008b8152602001908152602001600020600301600560008c815260200190815260200160002060040160009054906101000a900473ffffffffffffffffffffffffffffffffffffffff16600560008d815260200190815260200160002060050154858054600181600116156101000203166002900480601f0160208091040260200160405190810160405280929190818152602001828054600181600116156101000203166002900480156114d95780601f106114ae576101008083540402835291602001916114d9565b820191906000526020600020905b8154815290600101906020018083116114bc57829003601f168201915b50505050509550838054600181600116156101000203166002900480601f0160208091040260200160405190810160405280929190818152602001828054600181600116156101000203166002900480156115755780601f1061154a57610100808354040283529160200191611575565b820191906000526020600020905b81548152906001019060200180831161155857829003601f168201915b50505050509350828054600181600116156101000203166002900480601f0160208091040260200160405190810160405280929190818152602001828054600181600116156101000203166002900480156116115780601f106115e657610100808354040283529160200191611611565b820191906000526020600020905b8154815290600101906020018083116115f457829003601f168201915b5050505050925095509550955095509550955091939550919395565b6006602052806000526040600020600091509050806000018054600181600116156101000203166002900480601f0160208091040260200160405190810160405280929190818152602001828054600181600116156101000203166002900480156116d95780601f106116ae576101008083540402835291602001916116d9565b820191906000526020600020905b8154815290600101906020018083116116bc57829003601f168201915b505050505090806001018054600181600116156101000203166002900480601f0160208091040260200160405190810160405280929190818152602001828054600181600116156101000203166002900480156117775780601f1061174c57610100808354040283529160200191611777565b820191906000526020600020905b81548152906001019060200180831161175a57829003601f168201915b505050505090806002018054600181600116156101000203166002900480601f0160208091040260200160405190810160405280929190818152602001828054600181600116156101000203166002900480156118155780601f106117ea57610100808354040283529160200191611815565b820191906000526020600020905b8154815290600101906020018083116117f857829003601f168201915b5050505050908060030160009054906101000a900473ffffffffffffffffffffffffffffffffffffffff16905084565b6000816040516020018080602001828103825283818151815260200191508051906020019080838360005b8381101561188b578082015181840152602081019050611870565b50505050905090810190601f1680156118b85780820380516001836020036101000a031916815260200191505b5092505050604051602081830303815290604052805190602001206006600087815260200190815260200160002060020160405160200180806020018281038252838181546001816001161561010002031660029004815260200191508054600181600116156101000203166002900480156119755780601f1061194a57610100808354040283529160200191611975565b820191906000526020600020905b81548152906001019060200180831161195857829003601f168201915b505092505050604051602081830303815290604052805190602001201415611c4257836040516020018080602001828103825283818151815260200191508051906020019080838360005b838110156119db5780820151818401526020810190506119c0565b50505050905090810190601f168015611a085780820380516001836020036101000a031916815260200191505b509250505060405160208183030381529060405280519060200120600660008781526020019081526020016000206000016040516020018080602001828103825283818154600181600116156101000203166002900481526020019150805460018160011615610100020316600290048015611ac55780601f10611a9a57610100808354040283529160200191611ac5565b820191906000526020600020905b815481529060010190602001808311611aa857829003601f168201915b505092505050604051602081830303815290604052805190602001201415611c4157826040516020018080602001828103825283818151815260200191508051906020019080838360005b83811015611b2b578082015181840152602081019050611b10565b50505050905090810190601f168015611b585780820380516001836020036101000a031916815260200191505b509250505060405160208183030381529060405280519060200120600660008781526020019081526020016000206001016040516020018080602001828103825283818154600181600116156101000203166002900481526020019150805460018160011615610100020316600290048015611c155780601f10611bea57610100808354040283529160200191611c15565b820191906000526020600020905b815481529060010190602001808311611bf857829003601f168201915b505092505050604051602081830303815290604052805190602001201415611c405760019050611c47565b5b5b600090505b949350505050565b60035481565b60025481565b6005602052806000526040600020600091509050806000018054600181600116156101000203166002900480601f016020809104026020016040519081016040528092919081815260200182805460018160011615610100020316600290048015611d075780601f10611cdc57610100808354040283529160200191611d07565b820191906000526020600020905b815481529060010190602001808311611cea57829003601f168201915b505050505090806001015490806002018054600181600116156101000203166002900480601f016020809104026020016040519081016040528092919081815260200182805460018160011615610100020316600290048015611dab5780601f10611d8057610100808354040283529160200191611dab565b820191906000526020600020905b815481529060010190602001808311611d8e57829003601f168201915b505050505090806003018054600181600116156101000203166002900480601f016020809104026020016040519081016040528092919081815260200182805460018160011615610100020316600290048015611e495780601f10611e1e57610100808354040283529160200191611e49565b820191906000526020600020905b815481529060010190602001808311611e2c57829003601f168201915b5050505050908060040160009054906101000a900473ffffffffffffffffffffffffffffffffffffffff16908060050154908060060160009054906101000a900473ffffffffffffffffffffffffffffffffffffffff16908060070160009054906101000a900473ffffffffffffffffffffffffffffffffffffffff16908060080160009054906101000a900473ffffffffffffffffffffffffffffffffffffffff16908060090160009054906101000a900473ffffffffffffffffffffffffffffffffffffffff169080600a015490508b565b6000809054906101000a900473ffffffffffffffffffffffffffffffffffffffff1681565b60046020528060005260406000206000915090508060000154908060010154908060020154908060030160009054906101000a900473ffffffffffffffffffffffffffffffffffffffff16908060040160009054906101000a900473ffffffffffffffffffffffffffffffffffffffff1690806005018054600181600116156101000203166002900480601f01602080910402602001604051908101604052809291908181526020018280546001816001161561010002031660029004801561204c5780601f106120215761010080835404028352916020019161204c565b820191906000526020600020905b81548152906001019060200180831161202f57829003601f168201915b5050505050908060060154905087565b6000816005600082815260200190815260200160002060040160009054906101000a900473ffffffffffffffffffffffffffffffffffffffff1673ffffffffffffffffffffffffffffffffffffffff163373ffffffffffffffffffffffffffffffffffffffff1614151561215e576040517f08c379a00000000000000000000000000000000000000000000000000000000081526004018080602001828103825260238152602001807f4f6e6c79206f776e65722063616e207472616e73666572207468652070726f6481526020017f756374000000000000000000000000000000000000000000000000000000000081525060400191505060405180910390fd5b612166613ca0565b6006600087815260200190815260200160002060806040519081016040529081600082018054600181600116156101000203166002900480601f01602080910402602001604051908101604052809291908181526020018280546001816001161561010002031660029004801561221e5780601f106121f35761010080835404028352916020019161221e565b820191906000526020600020905b81548152906001019060200180831161220157829003601f168201915b50505050508152602001600182018054600181600116156101000203166002900480601f0160208091040260200160405190810160405280929190818152602001828054600181600116156101000203166002900480156122c05780601f10612295576101008083540402835291602001916122c0565b820191906000526020600020905b8154815290600101906020018083116122a357829003601f168201915b50505050508152602001600282018054600181600116156101000203166002900480601f0160208091040260200160405190810160405280929190818152602001828054600181600116156101000203166002900480156123625780601f1061233757610100808354040283529160200191612362565b820191906000526020600020905b81548152906001019060200180831161234557829003601f168201915b505050505081526020016003820160009054906101000a900473ffffffffffffffffffffffffffffffffffffffff1673ffffffffffffffffffffffffffffffffffffffff1673ffffffffffffffffffffffffffffffffffffffff168152505090506123cb613ca0565b6006600087815260200190815260200160002060806040519081016040529081600082018054600181600116156101000203166002900480601f0160208091040260200160405190810160405280929190818152602001828054600181600116156101000203166002900480156124835780601f1061245857610100808354040283529160200191612483565b820191906000526020600020905b81548152906001019060200180831161246657829003601f168201915b50505050508152602001600182018054600181600116156101000203166002900480601f0160208091040260200160405190810160405280929190818152602001828054600181600116156101000203166002900480156125255780601f106124fa57610100808354040283529160200191612525565b820191906000526020600020905b81548152906001019060200180831161250857829003601f168201915b50505050508152602001600282018054600181600116156101000203166002900480601f0160208091040260200160405190810160405280929190818152602001828054600181600116156101000203166002900480156125c75780601f1061259c576101008083540402835291602001916125c7565b820191906000526020600020905b8154815290600101906020018083116125aa57829003601f168201915b505050505081526020016003820160009054906101000a900473ffffffffffffffffffffffffffffffffffffffff1673ffffffffffffffffffffffffffffffffffffffff1673ffffffffffffffffffffffffffffffffffffffff1681525050905060006003600081548092919060010191905055905085600460008381526020019081526020016000206000018190555082606001516004600083815260200190815260200160002060030160006101000a81548173ffffffffffffffffffffffffffffffffffffffff021916908373ffffffffffffffffffffffffffffffffffffffff16021790555081606001516004600083815260200190815260200160002060040160006101000a81548173ffffffffffffffffffffffffffffffffffffffff021916908373ffffffffffffffffffffffffffffffffffffffff16021790555086600460008381526020019081526020016000206001018190555086600460008381526020019081526020016000206002018190555042600460008381526020019081526020016000206006018190555060405160200180806020018281038252600c8152602001807f4d616e75666163747572657200000000000000000000000000000000000000008152506020019150506040516020818303038152906040528051906020012083604001516040516020018080602001828103825283818151815260200191508051906020019080838360005b838110156127fb5780820151818401526020810190506127e0565b50505050905090810190601f1680156128285780820380516001836020036101000a031916815260200191505b50925050506040516020818303038152906040528051906020012014801561293557506040516020018080602001828103825260088152602001807f537570706c6965720000000000000000000000000000000000000000000000008152506020019150506040516020818303038152906040528051906020012082604001516040516020018080602001828103825283818151815260200191508051906020019080838360005b838110156128eb5780820151818401526020810190506128d0565b50505050905090810190601f1680156129185780820380516001836020036101000a031916815260200191505b509250505060405160208183030381529060405280519060200120145b15612a58576040805190810160405280600381526020017f4d32530000000000000000000000000000000000000000000000000000000000815250600460008381526020019081526020016000206005019080519060200190612999929190613cdf565b5081606001516005600088815260200190815260200160002060040160006101000a81548173ffffffffffffffffffffffffffffffffffffffff021916908373ffffffffffffffffffffffffffffffffffffffff16021790555081606001516005600088815260200190815260200160002060070160006101000a81548173ffffffffffffffffffffffffffffffffffffffff021916908373ffffffffffffffffffffffffffffffffffffffff160217905550600194505050506135fb565b6040516020018080602001828103825260088152602001807f537570706c6965720000000000000000000000000000000000000000000000008152506020019150506040516020818303038152906040528051906020012083604001516040516020018080602001828103825283818151815260200191508051906020019080838360005b83811015612af8578082015181840152602081019050612add565b50505050905090810190601f168015612b255780820380516001836020036101000a031916815260200191505b509250505060405160208183030381529060405280519060200120148015612c3257506040516020018080602001828103825260088152602001807f52657461696c65720000000000000000000000000000000000000000000000008152506020019150506040516020818303038152906040528051906020012082604001516040516020018080602001828103825283818151815260200191508051906020019080838360005b83811015612be8578082015181840152602081019050612bcd565b50505050905090810190601f168015612c155780820380516001836020036101000a031916815260200191505b509250505060405160208183030381529060405280519060200120145b15612d55576040805190810160405280600381526020017f5332520000000000000000000000000000000000000000000000000000000000815250600460008381526020019081526020016000206005019080519060200190612c96929190613cdf565b5081606001516005600088815260200190815260200160002060040160006101000a81548173ffffffffffffffffffffffffffffffffffffffff021916908373ffffffffffffffffffffffffffffffffffffffff16021790555081606001516005600088815260200190815260200160002060080160006101000a81548173ffffffffffffffffffffffffffffffffffffffff021916908373ffffffffffffffffffffffffffffffffffffffff160217905550600194505050506135fb565b6040516020018080602001828103825260088152602001807f52657461696c65720000000000000000000000000000000000000000000000008152506020019150506040516020818303038152906040528051906020012083604001516040516020018080602001828103825283818151815260200191508051906020019080838360005b83811015612df5578082015181840152602081019050612dda565b50505050905090810190601f168015612e225780820380516001836020036101000a031916815260200191505b509250505060405160208183030381529060405280519060200120148015612f2f57506040516020018080602001828103825260088152602001807f437573746f6d65720000000000000000000000000000000000000000000000008152506020019150506040516020818303038152906040528051906020012082604001516040516020018080602001828103825283818151815260200191508051906020019080838360005b83811015612ee5578082015181840152602081019050612eca565b50505050905090810190601f168015612f125780820380516001836020036101000a031916815260200191505b509250505060405160208183030381529060405280519060200120145b15613052576040805190810160405280600381526020017f5232430000000000000000000000000000000000000000000000000000000000815250600460008381526020019081526020016000206005019080519060200190612f93929190613cdf565b5081606001516005600088815260200190815260200160002060040160006101000a81548173ffffffffffffffffffffffffffffffffffffffff021916908373ffffffffffffffffffffffffffffffffffffffff16021790555081606001516005600088815260200190815260200160002060090160006101000a81548173ffffffffffffffffffffffffffffffffffffffff021916908373ffffffffffffffffffffffffffffffffffffffff160217905550600194505050506135fb565b6040516020018080602001828103825260088152602001807f437573746f6d65720000000000000000000000000000000000000000000000008152506020019150506040516020818303038152906040528051906020012083604001516040516020018080602001828103825283818151815260200191508051906020019080838360005b838110156130f25780820151818401526020810190506130d7565b50505050905090810190601f16801561311f5780820380516001836020036101000a031916815260200191505b50925050506040516020818303038152906040528051906020012014801561322c57506040516020018080602001828103825260068152602001807f45776173746500000000000000000000000000000000000000000000000000008152506020019150506040516020818303038152906040528051906020012082604001516040516020018080602001828103825283818151815260200191508051906020019080838360005b838110156131e25780820151818401526020810190506131c7565b50505050905090810190601f16801561320f5780820380516001836020036101000a031916815260200191505b509250505060405160208183030381529060405280519060200120145b1561334f576040805190810160405280600381526020017f4332450000000000000000000000000000000000000000000000000000000000815250600460008381526020019081526020016000206005019080519060200190613290929190613cdf565b5081606001516005600088815260200190815260200160002060040160006101000a81548173ffffffffffffffffffffffffffffffffffffffff021916908373ffffffffffffffffffffffffffffffffffffffff16021790555081606001516005600088815260200190815260200160002060090160006101000a81548173ffffffffffffffffffffffffffffffffffffffff021916908373ffffffffffffffffffffffffffffffffffffffff160217905550600194505050506135fb565b60405160200180806020018281038252600c8152602001807f4d616e75666163747572657200000000000000000000000000000000000000008152506020019150506040516020818303038152906040528051906020012083604001516040516020018080602001828103825283818151815260200191508051906020019080838360005b838110156133ef5780820151818401526020810190506133d4565b50505050905090810190601f16801561341c5780820380516001836020036101000a031916815260200191505b50925050506040516020818303038152906040528051906020012014801561352957506040516020018080602001828103825260068152602001807f45776173746500000000000000000000000000000000000000000000000000008152506020019150506040516020818303038152906040528051906020012082604001516040516020018080602001828103825283818151815260200191508051906020019080838360005b838110156134df5780820151818401526020810190506134c4565b50505050905090810190601f16801561350c5780820380516001836020036101000a031916815260200191505b509250505060405160208183030381529060405280519060200120145b156135f3576040805190810160405280600381526020017f4d3245000000000000000000000000000000000000000000000000000000000081525060046000838152602001908152602001600020600501908051906020019061358d929190613cdf565b5081606001516005600088815260200190815260200160002060040160006101000a81548173ffffffffffffffffffffffffffffffffffffffff021916908373ffffffffffffffffffffffffffffffffffffffff160217905550600194505050506135fb565b600094505050505b509392505050565b4260056000838152602001908152602001600020600a01541015156136c4577f4f8b94e6fd66fcbed7593f9ff2d7e3d4ab1d8bd0720ab00d8a7ec18677a34ff1816005600084815260200190815260200160002060040160009054906101000a900473ffffffffffffffffffffffffffffffffffffffff16604051808381526020018273ffffffffffffffffffffffffffffffffffffffff1673ffffffffffffffffffffffffffffffffffffffff1681526020019250505060405180910390a15b50565b600060405160200180806020018281038252600c8152602001807f4d616e7566616374757265720000000000000000000000000000000000000000815250602001915050604051602081830303815290604052805190602001206006600088815260200190815260200160002060020160405160200180806020018281038252838181546001816001161561010002031660029004815260200191508054600181600116156101000203166002900480156137c35780601f10613798576101008083540402835291602001916137c3565b820191906000526020600020905b8154815290600101906020018083116137a657829003601f168201915b5050925050506040516020818303038152906040528051906020012014156139d05760006001600081548092919060010191905055905085600560008381526020019081526020016000206000019080519060200190613824929190613cdf565b508460056000838152602001908152602001600020600101819055508360056000838152602001908152602001600020600201908051906020019061386a929190613cdf565b5082600560008381526020019081526020016000206003019080519060200190613895929190613cdf565b506006600088815260200190815260200160002060030160009054906101000a900473ffffffffffffffffffffffffffffffffffffffff166005600083815260200190815260200160002060040160006101000a81548173ffffffffffffffffffffffffffffffffffffffff021916908373ffffffffffffffffffffffffffffffffffffffff1602179055504260056000838152602001908152602001600020600501819055506006600088815260200190815260200160002060030160009054906101000a900473ffffffffffffffffffffffffffffffffffffffff166005600083815260200190815260200160002060060160006101000a81548173ffffffffffffffffffffffffffffffffffffffff021916908373ffffffffffffffffffffffffffffffffffffffff160217905550809150506139d5565b600090505b95945050505050565b6000806002600081548092919060010191905055905084600660008381526020019081526020016000206000019080519060200190613a1e929190613cdf565b5083600660008381526020019081526020016000206001019080519060200190613a49929190613cdf565b5082600660008381526020019081526020016000206002019080519060200190613a74929190613cdf565b50336006600083815260200190815260200160002060030160006101000a81548173ffffffffffffffffffffffffffffffffffffffff021916908373ffffffffffffffffffffffffffffffffffffffff1602179055506002549150509392505050565b600080600080613ae5613d5f565b6004600087815260200190815260200160002060e060405190810160405290816000820154815260200160018201548152602001600282015481526020016003820160009054906101000a900473ffffffffffffffffffffffffffffffffffffffff1673ffffffffffffffffffffffffffffffffffffffff1673ffffffffffffffffffffffffffffffffffffffff1681526020016004820160009054906101000a900473ffffffffffffffffffffffffffffffffffffffff1673ffffffffffffffffffffffffffffffffffffffff1673ffffffffffffffffffffffffffffffffffffffff168152602001600582018054600181600116156101000203166002900480601f016020809104026020016040519081016040528092919081815260200182805460018160011615610100020316600290048015613c675780601f10613c3c57610100808354040283529160200191613c67565b820191906000526020600020905b815481529060010190602001808311613c4a57829003601f168201915b5050505050815260200160068201548152505090508060000151816040015182608001518360c001519450945094509450509193509193565b608060405190810160405280606081526020016060815260200160608152602001600073ffffffffffffffffffffffffffffffffffffffff1681525090565b828054600181600116156101000203166002900490600052602060002090601f016020900481019282601f10613d2057805160ff1916838001178555613d4e565b82800160010185558215613d4e579182015b82811115613d4d578251825591602001919060010190613d32565b5b509050613d5b9190613dc9565b5090565b60e060405190810160405280600081526020016000815260200160008152602001600073ffffffffffffffffffffffffffffffffffffffff168152602001600073ffffffffffffffffffffffffffffffffffffffff16815260200160608152602001600081525090565b613deb91905b80821115613de7576000816000905550600101613dcf565b5090565b9056fea165627a7a7230582072933a3620793a36da1b0ede773d2925b7c8d2988d99837bd463c0c6227231370029",
  "source": "pragma solidity ^0.5.0;\r\n\r\ncontract ewaste{\r\n\r\n    address public owner;\r\n    uint public _p_id =0;\r\n    uint public _u_id =0;\r\n    uint public _t_id=0;\r\n\r\n    constructor() public{\r\n        owner = msg.sender;\r\n    }\r\n    struct track_product {\r\n        uint _product_id;\r\n        uint _prev_owner_id;\r\n        uint _new_owner_id;\r\n        address _prev_product_owner;\r\n        address _new_product_owner;\r\n        string _transfer_type;\r\n        uint _timeStamp;\r\n    }\r\n    mapping(uint => track_product) public tracks;\r\n   \r\n    struct product {\r\n        string _product_name;\r\n        uint _product_cost;\r\n        string _product_specs;\r\n        string _product_review;\r\n        address _product_owner;\r\n        uint _manufacture_date;\r\n        address _mfg;\r\n        address _sup;\r\n        address _ret;\r\n        address _cust;\r\n        uint _expiry_date;\r\n    }\r\n    mapping(uint=>product) public products;\r\n   \r\n    struct participant {\r\n        string _userName;\r\n        string _passWord;\r\n        string _userType;\r\n        address _address;\r\n        //uint rating =0;\r\n    }\r\n    mapping(uint => participant) public participants;\r\n    modifier onlyOwner(uint pid)\r\n    {\r\n        require(msg.sender == products[pid]._product_owner,\"Only owner can transfer the product\");\r\n        _;\r\n    }\r\n    \r\n    event ProductExpired(uint product_id, address prod_owner);\r\n\r\n    function checkifprodexpired(uint product_id)public {\r\n\r\n        if(products[product_id]._expiry_date>=now)\r\n        {\r\n            emit ProductExpired(product_id,products[product_id]._product_owner);\r\n        }\r\n    }\r\n\r\n    function createParticipant(string memory name,string memory pass,string memory utype) public returns (uint){\r\n        uint user_id = _u_id++;\r\n        participants[user_id]._userName = name;\r\n        participants[user_id]._passWord = pass;\r\n        participants[user_id]._userType = utype;\r\n        participants[user_id]._address = msg.sender;\r\n        return _u_id;\r\n    }\r\n\r\n    function newProduct(uint own_id, string memory name,uint p_cost,string memory p_specs,string memory p_review) public returns (uint) {\r\n        if(keccak256(abi.encode(participants[own_id]._userType)) == keccak256(abi.encode(\"Manufacturer\"))) {\r\n            uint product_id = _p_id++;\r\n           \r\n            products[product_id]._product_name = name;\r\n            products[product_id]._product_cost = p_cost;\r\n            products[product_id]._product_specs = p_specs;\r\n            products[product_id]._product_review = p_review;\r\n            products[product_id]._product_owner = participants[own_id]._address;\r\n            products[product_id]._manufacture_date = now;\r\n            products[product_id]._mfg = participants[own_id]._address;\r\n            return product_id;\r\n        }\r\n        \r\n        return 0;\r\n    }\r\n    function getParticipant(uint p_id) public returns (string memory,address,string memory) {\r\n        return (participants[p_id]._userName,participants[p_id]._address,participants[p_id]._userType);\r\n    }\r\n    function getProduct_details(uint prod_id) public returns (string memory,uint,string memory,string memory,address,uint){\r\n        return (products[prod_id]._product_name,products[prod_id]._product_cost,products[prod_id]._product_specs,products[prod_id]._product_review,products[prod_id]._product_owner,products[prod_id]._manufacture_date);\r\n    }\r\n    function transferOwnership_product(uint user1_id,uint user2_id, uint prod_id) onlyOwner(prod_id) public returns(bool) {\r\n        //require(msg.sender == products[prod_id]._product_owner);\r\n        participant memory  p1 = participants[user1_id];\r\n        participant memory  p2 = participants[user2_id];\r\n        //track_product  trk;\r\n        uint track_id = _t_id++;\r\n        tracks[track_id]._product_id = prod_id;\r\n        tracks[track_id]._prev_product_owner = p1._address;\r\n        tracks[track_id]._new_product_owner = p2._address;\r\n        tracks[track_id]._prev_owner_id = user2_id;\r\n        tracks[track_id]._new_owner_id = user2_id;\r\n        tracks[track_id]._timeStamp = now;\r\n        if(keccak256(abi.encode(p1._userType)) == keccak256(abi.encode(\"Manufacturer\")) && keccak256(abi.encode(p2._userType))==keccak256(abi.encode(\"Supplier\"))){\r\n          \r\n            tracks[track_id]._transfer_type = \"M2S\";\r\n            products[prod_id]._product_owner = p2._address; \r\n            products[prod_id]._sup=p2._address;\r\n            return (true);\r\n        }\r\n        else if(keccak256(abi.encode(p1._userType)) == keccak256(abi.encode(\"Supplier\")) && keccak256(abi.encode(p2._userType))==keccak256(abi.encode(\"Retailer\"))){\r\n\r\n            tracks[track_id]._transfer_type = \"S2R\";\r\n            products[prod_id]._product_owner = p2._address;\r\n            products[prod_id]._ret = p2._address;\r\n            return (true);\r\n        }\r\n        else if(keccak256(abi.encode(p1._userType)) == keccak256(abi.encode(\"Retailer\")) && keccak256(abi.encode(p2._userType))==keccak256(abi.encode(\"Customer\"))){\r\n\r\n            tracks[track_id]._transfer_type = \"R2C\";\r\n            products[prod_id]._product_owner = p2._address;\r\n            products[prod_id]._cust = p2._address;\r\n            return (true);\r\n        }\r\n        else if(keccak256(abi.encode(p1._userType)) == keccak256(abi.encode(\"Customer\")) && keccak256(abi.encode(p2._userType))==keccak256(abi.encode(\"Ewaste\"))){\r\n\r\n            tracks[track_id]._transfer_type = \"C2E\";\r\n            products[prod_id]._product_owner = p2._address;\r\n            products[prod_id]._cust = p2._address;\r\n            return (true);\r\n        }\r\n        else if(keccak256(abi.encode(p1._userType)) == keccak256(abi.encode(\"Manufacturer\")) && keccak256(abi.encode(p2._userType))==keccak256(abi.encode(\"Ewaste\"))){\r\n\r\n            tracks[track_id]._transfer_type = \"M2E\";\r\n            products[prod_id]._product_owner = p2._address;\r\n            \r\n            return (true);\r\n        }\r\n        else{\r\n            return false;\r\n        }\r\n        checkifprodexpired(prod_id);\r\n    }\r\n    function getProduct_trackindex(uint trck_id)  public  returns (uint,uint,address,uint) {\r\n        \r\n        track_product memory t = tracks[trck_id];\r\n       \r\n        return (t._product_id,t._new_owner_id,t._new_product_owner,t._timeStamp);\r\n    }\r\n    function userLogin(uint uid,string memory uname,string memory pass,string memory utype) public returns (bool){\r\n        if(keccak256(abi.encode(participants[uid]._userType)) == keccak256(abi.encode(utype))){\r\n            if(keccak256(abi.encode(participants[uid]._userName)) == keccak256(abi.encode(uname))) {\r\n                if(keccak256(abi.encode(participants[uid]._passWord))==keccak256(abi.encode(pass))) {\r\n                    return (true);\r\n                }\r\n            }\r\n        }\r\n        return (false);\r\n    }\r\n}",
  "sourcePath": "G:/ewaste-management/contracts/ewaste.sol",
  "compiler": {
    "name": "solc",
    "version": "0.5.0+commit.1d4f565a.Emscripten.clang"
  },
  "schemaVersion": "3.0.1",
  "updatedAt": "2019-02-22T13:14:31.533Z",
  "devdoc": {
    "methods": {}
  },
  "userdoc": {
    "methods": {}
  }
}